:100000000C94A3000C94CB000C94CB000C94CB006C
:100010000C94CB000C94CB000C94CB000C94CB0034
:100020000C94CB000C94CB000C94CB000C94CB0024
:100030000C94CB000C94CB000C94CB000C94CB0014
:100040000C948C190C94CB000C94FC190C94D619BC
:100050000C94CB000C94CB000C94CB000C94CB00F4
:100060000C942E1A0C94CB007C3C3E5E2B3D3F2F13
:100070005B5D3B2C2A225C00000000002300260070
:1000800029001F1C1F1E1F1E1F1F1E1F1E31373A57
:1000900030363A3532004E6F7620323020323032F0
:1000A00031004572726F722072656164696E6720FB
:1000B00068756D69646974792100250048756D69FA
:1000C000646974793A2000C2B0430054656D70656C
:1000D0007261747572653A20004572726F72207297
:1000E000656164696E672074656D706572617475B1
:1000F0007265210000000000240027002A00000093
:100100000000250028002B0000000008000201006C
:1001100000030407000000000000000004040404C1
:1001200004040404020202020202030303030303A1
:10013000010204081020408001020408102001027E
:10014000040810205A1B11241FBECFEFD8E0DEBFD9
:10015000CDBF26E0A4E9B2E001C01D92A23BB207E8
:10016000E1F712E0A0E0B1E0E4E5FDE402C00590B3
:100170000D92A439B107D9F710E0C3EAD0E004C06A
:100180002197FE010E944924C23AD107C9F70E9473
:10019000141C0C94A8260C9400000895089590E077
:1001A000FC01E85FFE4F2491FC01E05DFE4F3491BD
:1001B000FC01E45EFE4FE491EE23C9F0222339F006
:1001C000233001F1A8F4213019F1223029F1F0E0B7
:1001D000EE0FFF1FE250FF4FA591B4918FB7F89437
:1001E000EC91611126C030953E233C938FBF08955A
:1001F0002730A9F02830C9F0243049F780918000D9
:100200008F7D03C0809180008F7780938000DFCF47
:1002100084B58F7784BDDBCF84B58F7DFBCF809194
:10022000B0008F778093B000D2CF8091B0008F7DE7
:10023000F9CF3E2BDACFCF93DF9390E0FC01E05D66
:10024000FE4F2491845E9E4FFC0184918823C9F067
:1002500090E0880F991FFC01EC50FF4FA591B491DD
:10026000FC01E250FF4FC591D49161110DC09FB7C1
:10027000F8948C91209582238C938881282328835D
:100280009FBFDF91CF910895623051F49FB7F894EA
:100290003C91822F809583238C93E8812E2BEFCF86
:1002A0008FB7F894EC912E2B2C938FBFEACF3FB7EA
:1002B000F8948091EF029091F002A091F102B09138
:1002C000F20226B5A89B05C02F3F19F00196A11D8B
:1002D000B11D3FBFBA2FA92F982F8827BC01CD0190
:1002E000620F711D811D911D42E0660F771F881FEF
:1002F000991F4A95D1F708958F929F92AF92BF921E
:10030000CF92DF92EF92FF926B017C010E94570126
:100310004B015C01C114D104E104F104B9F00E9465
:100320005701681979098A099B09683E734081055C
:10033000910580F321E0C21AD108E108F10888EEA6
:10034000880E83E0981EA11CB11CE4CFFF90EF90B3
:10035000DF90CF90BF90AF909F908F9008952FB770
:10036000F8946091EB027091EC028091ED02909113
:10037000EE022FBF0895AF92BF92CF92DF92EF921D
:10038000FF920F931F93CF93DF936C017B018B013F
:10039000040F151FEB015E01AE18BF08C017D1078F
:1003A00059F06991D601ED91FC910190F081E02D19
:1003B000C6010995892B79F7C501DF91CF911F916E
:1003C0000F91FF90EF90DF90CF90BF90AF90089586
:1003D000FC01538D448D252F30E0842F90E0821B4B
:1003E000930B541710F0CF96089501970895FC01D0
:1003F000918D828D981761F0A28DAE0FBF2FB11D28
:100400005D968C91928D9F5F9F73928F90E008957F
:100410008FEF9FEF0895FC01918D828D981731F039
:10042000828DE80FF11D858D90E008958FEF9FEF8D
:100430000895FC01918D228D892F90E0805C9F4F63
:10044000821B91098F73992708958DE695E00E948C
:10045000190221E0892B09F420E0822F089580E021
:1004600090E0892B29F00E94250281110C94000054
:100470000895FC01A48DA80FB92FB11DA35ABF4F39
:100480002C91848D90E001968F739927848FA68993
:10049000B7892C93A089B1898C91837080648C93E7
:1004A000938D848D981306C00288F389E02D808196
:1004B0008F7D80830895EF92FF920F931F93CF93C8
:1004C000DF93EC0181E0888F9B8D8C8D98131AC08F
:1004D000E889F989808185FF15C09FB7F894EE8976
:1004E000FF896083E889F9898081837080648083D3
:1004F0009FBF81E090E0DF91CF911F910F91FF901E
:10050000EF900895F62E0B8D10E00F5F1F4F0F73C5
:100510001127E02E8C8D8E110CC00FB607FCFACF80
:10052000E889F989808185FFF5CFCE010E943902E3
:10053000F1CFEB8DEC0FFD2FF11DE35AFF4FF08251
:100540009FB7F8940B8FEA89FB8980818062CFCFB7
:100550000F931F93CF93DF938C01D0E0C0E0F8019D
:10056000EC0FFD1F6491662341F08DE695E00E943B
:100570005B02892B11F02196F2CFCE01DF91CF9152
:100580001F910F910895CF93DF93EC01888D8823FD
:10059000B9F0AA89BB89E889F9898C9185FD03C0E6
:1005A000808186FD0DC00FB607FCF7CF8C9185FFCB
:1005B000F2CF808185FFEDCFCE010E943902E9CFD5
:1005C000DF91CF91089561E0FC0184810C94CF000C
:1005D0008091E7028F3F39F48EBD00000DB407FE15
:1005E000FDCF8EB50895F894E091E202F091E30218
:1005F00080819091E102892B808328E080E0E09166
:10060000E502F091E60230819091E402392B3083CB
:10061000880FA091DF02B091E0023C914091DE0290
:10062000342309F0816030819095932390830000FA
:100630000000215021F7789408950F931F93CF93D2
:10064000DF93EC010E94AF018B010E94E8028F3F13
:1006500069F00E94AF01601B710B6C177D07A8F356
:1006600080E0DF91CF911F910F91089581E0F9CF44
:100670009091E7029F3F39F48EBD00000DB407FE54
:10068000FDCF8EB50895F894E091E502F091E60271
:100690003091E402532F5095A091E202B091E30211
:1006A0004091E102642F609598E02081252320830A
:1006B0002C9187FF18C0242B2C932081232B20837F
:1006C000880F915091F70000000000000000E091B9
:1006D000E502F091E60290818091E4028095892301
:1006E0008083789408952623E7CF8F929F92AF92CC
:1006F000BF92FF920F931F93CF93DF93EC01F62EDF
:1007000049015A018E81882389F08F8198859C0147
:100710002F5F3F4F38872F838230924018F40E941A
:10072000E802F3CFCE010E94E3021E8260E08C81DA
:100730000E94CF008CE291E00E941D038F2D806407
:100740000E94380308E110E0D501C401002E04C066
:10075000B695A795979587950A94D2F70E94380386
:1007600008501109083F8FEF180771F785E9FF203E
:1007700021F028E087E8F2128FEF0E94380310E0A2
:100780000E94E8028A8787FF04C01F3F11F01F5FA5
:10079000F7CFDF91CF911F910F91FF90BF90AF9056
:1007A0009F908F900895AF92BF92CF92DF92EF9279
:1007B000FF920F931F93CF93DF93EC016901C80160
:1007C000820F931F8130924050F58E81882379F0FB
:1007D00088819981AA81BB8184179507A607B707ED
:1007E00031F48F819885C816D90608F042C0488335
:1007F00059836A837B838B85833039F089E0440F8A
:10080000551F661F771F8A95D1F79A01AB0161E1E9
:10081000CE010E947503882389F083E08D83CE0189
:100820000E94E30280E0DF91CF911F910F91FF9032
:10083000EF90DF90CF90BF90AF9008950E94AF01EE
:100840005B010E94E8028A878F3F69F40E94AF0132
:100850006A197B096D327140A0F38FE08D83CE0160
:100860000E94E302DCCF8E3F89F418861F8281E06C
:100870008E838F8198858C159D0550F40E94E80227
:100880008F819885019698878F83F3CF8DE0E6CF8F
:100890006701E00EF11E0E94E802F60181936F01EC
:1008A000EE15FF05C1F78F819885080F191F18876E
:1008B0000F838985882319F001151240A0F08E81DD
:1008C000882389F08F8198859C012F5F3F4F38875F
:1008D0002F838230924018F40E94E802F3CFCE01B9
:1008E0000E94E3021E8281E09ECFCF92DF92EF92C0
:1008F000FF920F931F93CF93DF93EC01690182E185
:10090000411551056105710599F08B85833039F0EA
:10091000E9E0440F551F661F771FEA95D1F79A014A
:10092000AB0168E1CE010E947503882319F084E0D1
:100930008D8358C08C8596013E5F79010FEF1FEFC4
:10094000882319F1F60110E000E0819190E0812701
:100950009C0144E0359527954A95E1F78227932736
:10096000102F0027082719279C01322F22273295A4
:10097000307F0227132775E0880F991F7A95E1F7DA
:1009800008271927EE16FF0601F78EEF0E9438039D
:10099000F60181916F010E943803EC14FD04C1F748
:1009A000812F0E943803802F0E9438030E94E802A2
:1009B0008A878F71853089F488E592E00E941D0353
:1009C0008823A9F020E030E0A9016DE0CE010E946B
:1009D0007503882371F084E1ABCF81E18D83CE0173
:1009E0000E94E302CE010E94E30280E00AC085E19A
:1009F0009FCF0E94E8028111EECFCE010E94E30258
:100A000081E0DF91CF911F910F91FF90EF90DF90E8
:100A1000CF900895CF93DF938091D8028823A9F1D6
:100A2000C091F304D091F404409100015091010170
:100A3000609102017091030123EF32E0CE010E9428
:100A40007504811104C080E0DF91CF910895409139
:100A5000D9025091DA026091DB027091DC024115FB
:100A600051056105710579F023EF32E0CE010E9456
:100A70007504882341F31092D9021092DA02109281
:100A8000DB021092DC021092D80281E0DDCF8F925F
:100A90009F92AF92BF92EF92FF920F931F93CF93CB
:100AA0004B015C01C42F8091000190910101A09144
:100AB0000201B091030188159905AA05BB0549F10A
:100AC0000E940A0581110BC080E0CF911F910F9108
:100AD000FF90EF90BF90AF909F908F90089583EF1D
:100AE000E82E82E0F82E00E012E030E020E0B501D0
:100AF000A4018091F3049091F4040E94D30388230D
:100B000019F38092000190920101A0920201B0922B
:100B100003014091D8024C2B4093D80281E0D5CFFD
:100B20008F929F92AF92BF92CF92DF92EF92FF92FD
:100B3000CF932AE036E03093F4042093F304882323
:100B400009F46DC040E060E070E0CB010E94470511
:100B500081110BC080E0CF91FF90EF90DF90CF909C
:100B6000BF90AF909F908F9008958091B1048F7740
:100B700089F78091BD049091BE04A091BF04B0910B
:100B8000C00484369105A105B10520F3C090B904D5
:100B9000D090BA04E090BB04F090BC04C114D1041E
:100BA000E104F104B9F240E0C701B6010E94470533
:100BB000882381F28091FE029091FF02811592407C
:100BC00049F6A0910303AA2329F2609101037091D1
:100BD00002036115710509F4BDCF209100032223A2
:100BE00009F4B8CFA093290620931B0690E080E07B
:100BF00030E0E1E0F0E0C82FAF01082E02C0440F62
:100C0000551F0A94E2F72417350769F041E0480FB1
:100C100001968930910579F7409324069BCFC12C2A
:100C2000D12C7601C0CF8093240620910903309106
:100C30000A0350E040E02115310541F420911703EB
:100C4000309118034091190350911A0320931C0608
:100C500030931D0640931E0650931F064601570110
:100C6000860E971EA11CB11C80922A0690922B061C
:100C7000A0922C06B0922D06E0910403F09105039A
:100C8000F0933006E0932F06B0E00E94ED23DC01E4
:100C9000CB01880D991DAA1DBB1D80933106909331
:100CA0003206A0933306B093340625E0EE0FFF1F03
:100CB0002A95E1F7E150FE4FEF2FFF27E6958E0FC3
:100CC0009F1FA11DB11D8093250690932606A0931A
:100CD0002706B09328068090060390900703B12C56
:100CE000A12C8114910441F480901303909014037B
:100CF000A0901503B0901603C81AD90AEA0AFB0A95
:100D0000C80CD91CEA1CFB1C04C0F694E794D794C9
:100D1000C794CA95D2F7C0922006D0922106E092DD
:100D20002206F092230685EFC8168FE0D806E1046C
:100D3000F10428F48CE080932E0681E00CCF80E152
:100D400025EFC2162FEFD206E104F104A0F3809143
:100D50001F0390912003A0912103B091220380935F
:100D6000310690933206A0933306B093340680E2A6
:100D7000E2CF4F925F926F927F928F929F92AF924B
:100D8000BF92CF92DF92EF92FF920F931F93CF9378
:100D9000DF93EC01423051056105710590F480E06C
:100DA000DF91CF911F910F91FF90EF90DF90CF9047
:100DB000BF90AF909F908F907F906F905F904F907B
:100DC000089589859A85AB85BC850196A11DB11DC5
:100DD00084179507A607B70710F3CB88DC88ED8842
:100DE000FE888F89803109F042C0BB27A72F962F3C
:100DF000852F480159012A013B01C80ED91EEA1E60
:100E0000FB1E8091000190910101A0910201B0911F
:100E10000301C816D906EA06FB0699F58F898031C9
:100E2000C1F5B301A201552766277727440F551F47
:100E30004D505D4FFA01918280828091D80281608D
:100E40008093D8028A89823080F08D819E81AF8123
:100E5000B8858C0D9D1DAE1DBF1D8093D90290934A
:100E6000DA02A093DB02B093DC0281E099CFDB01D0
:100E7000CA01E7E0B695A79597958795EA95D1F7CA
:100E8000B8CF40E0C701B6010E9447058111C6CF27
:100E900086CFB301A2014F77552766277727440FE6
:100EA000551F440F551F4D505D4FFA0180829182AE
:100EB000A282B382C2CF8F929F92AF92BF92CF9203
:100EC000DF92EF92FF920F931F93CF93DF93FC017A
:100ED00081859285A385B4850196A11DB11D8417D6
:100EE0009507A607B70770F480E0DF91CF911F91B7
:100EF0000F91FF90EF90DF90CF90BF90AF909F90B9
:100F00008F90089583889488A588B68887898031D2
:100F100089F5BB27A72F962F852FE9016A017B0151
:100F20008F01BC01CD01680D791D8A1D9B1D80902C
:100F3000000190900101A0900201B090030186167B
:100F40009706A806B90601F5F8018789803111F5E1
:100F5000DD24EE24FF24F601EE0FFF1FED50FD4FC0
:100F600080819181B0E0A0E088839983AA83BB83CC
:100F700081E0BBCFDB01CA01C7E0B695A795979585
:100F80008795CA95D1F7C9CF40E00E9447058111E6
:100F9000DBCFAACFE894C7F8DD24EE24FF24F601C6
:100FA000EE0FFF1FEE0FFF1FED50FD4F808191816F
:100FB000A281B381BF70D8CF4F925F926F927F9220
:100FC000AF92BF92CF92DF92EF92FF920F931F9357
:100FD000CF93DF9300D000D0CDB7DEB78C0149832B
:100FE0005A836B837C835901C12CD12C7601412C0F
:100FF00082E0582E612C712C49815A816B817C8151
:101000009E012F5F3F4FC8010E945B07882339F183
:10101000F8018585A301920104C0220F331F441FEC
:10102000551F8A95D2F7DA01C901C80ED91EEA1EEA
:10103000FB1E49815A816B817C818789803111F146
:1010400088EF9FEFAFEFBFE0481759076A077B07AC
:1010500098F2F501C082D182E282F38281E00F90A2
:101060000F900F900F90DF91CF911F910F91FF90F4
:10107000EF90DF90CF90BF90AF907F906F905F9098
:101080004F90089588EF9FEFA0E0B0E0DDCF8F9202
:101090009F92AF92BF92CF92DF92EF92FF920F9307
:1010A0001F93CF93DF93EC018D8181110EC080E0FF
:1010B000DF91CF911F910F91FF90EF90DF90CF9034
:1010C000BF90AF909F908F9008950B891C892D89B8
:1010D0003E89041715072607370748F34A015B01C5
:1010E000823031F48A869B86AC86BD8681E0E0CF73
:1010F00081149104A104B10449F41E821F82188650
:1011000019861A861B861C861D86F0CF0A851B85CC
:101110002C853D85EB8DFC8D858590E00996B90188
:10112000A8014150510961097109082E04C0769542
:101130006795579547950A94D2F775016401E1E0E8
:10114000CE1AD108E108F10804C0F694E794D794C8
:10115000C7948A95D2F7C416D506E606F70620F09E
:10116000012B022B032B11F58F89988DA98DBA8D38
:101170008E839F83A887B9878E010A5F1F4FC11492
:10118000D104E104F10409F4ADCF4E815F8168859B
:10119000798598018B8D9C8D0E945B0791E0C91A1F
:1011A000D108E108F1088111EACF81CFC41AD50A2C
:1011B000E60AF70AE1CF3F924F925F926F927F92D9
:1011C0008F929F92AF92BF92CF92DF92EF92FF9257
:1011D0000F931F93CF93DF93CDB7DEB72C970FB646
:1011E000F894DEBF0FBECDBF5C01DC015B968D9035
:1011F0009C905C9716964D905D906D907C901997A1
:10120000411451046104710409F468C0BFEF4B1A22
:101210005B0A6B0A7B0A312CF40181859285A385D8
:10122000B4859C01AD012F5F3F4F4F4F5F4F298722
:101230003A874B875C87730162011D821E821F8281
:101240001886F40181859285A385B4852D813E8120
:101250004F815885281739074A075B0708F056C0A1
:1012600089859A85AB85BC858C159D05AE05BF0526
:1012700050F482E0C82ED12CE12CF12C92E0492EC2
:10128000512C612C712C9E012F5F3F4FB701A6019D
:10129000C4010E945B078823C9F189819A81AB81CF
:1012A000BC81892B8A2B8B2B09F1260137019FEFFB
:1012B000491A590A690A790A2D813E814F81588558
:1012C0002F5F3F4F4F4F5F4F2D833E834F83588794
:1012D0003FEFC31AD30AE30AF30AB3CFF401408005
:1012E0005180628073803324339496CFC414D50424
:1012F000E604F70409F70FEF1FEF2FEF3FE0B70108
:10130000A601C4010E94B906811119C080E02C9683
:101310000FB6F894DEBF0FBECDBFDF91CF911F9106
:101320000F91FF90EF90DF90CF90BF90AF909F9084
:101330008F907F906F905F904F903F900895F50150
:10134000468157816085718541155105610571059B
:1013500039F097018601C4010E94B9068823B1F2D1
:10136000D5011696CD92DD92ED92FC92199733201D
:1013700051F0D701C6010196A11DB11DF401808372
:101380009183A283B383F5018789908DA18DB28D5E
:10139000892B8A2B8B2B39F4C78AD08EE18EF28E63
:1013A00084818068848381E0B2CFCF93DF93EC01A6
:1013B0008D81882389F18C8187FF2AC06E857F8586
:1013C0008889998941E00E944705882329F1EA89A3
:1013D00080E2E89FF0011124ED50FD4F3097E1F0DD
:1013E0008D81823040F48B899C89AD89BE89848F40
:1013F000958FA68FB78F8F89988D938F828F8F89C6
:10140000988DA98DBA8DB58BA48B8C818F778C83A9
:10141000DF91CF910C940A0580E0DF91CF91089580
:10142000CF93DF93EC010E94D509882311F01D8230
:1014300081E0DF91CF9108952F923F924F925F927A
:101440006F927F928F929F92AF92BF92CF92DF92D4
:10145000EF92FF920F931F93CF93DF9300D000D0B2
:10146000CDB7DEB78C015B011A01DC0115968C91BA
:101470001597813009F0C8C014968C9181FFC4C0C3
:1014800082FDAEC06101D8011A964D915D916D91BA
:101490007C911D97C114D10409F429C15B968D91EB
:1014A0009C915C97FC0174802FEF270D2A013B0172
:1014B00039E076946794579447943A95D1F7722E11
:1014C00074207A01F1E0FF22711020C0E114F104D0
:1014D000E9F416964D915D916D917C9119974115A6
:1014E00051056105710509F098C057968D919D9140
:1014F0000D90BC91A02D0097A105B10509F0AFC0DA
:10150000C8010E94DB08882309F47EC080E092E0D5
:101510008E199F0946018C159D0508F44C01D801D0
:101520005B964D915C915C9716968D919D910D9077
:10153000BC91A02D0297A109B109FA01258504C02B
:10154000880F991FAA1FBB1F2A95D2F7468557857A
:1015500060897189840F951FA61FB71F9C01AD017B
:10156000270D311D411D511D29013A01811432E021
:10157000930609F07AC08091000190910101A09139
:101580000201B091030184159505A605B70559F42C
:101590008FEF9FEFDC018093000190930101A093F6
:1015A0000201B09303019501B301A2018091F304FC
:1015B0009091F4040E947504882331F19EEFB91ACA
:1015C000C818D908F80182859385A485B585880D4A
:1015D000991DA11DB11D82879387A487B58753CF1D
:1015E000F801438954896589768982859385A48524
:1015F000B585481759076A077B0709F443CFC80127
:101600000E94470881113ECF81E090E0D8011396F7
:101610009C938E93129780E007C09E012F5F3F4FEF
:101620000E945B07811102C090E077C089819A8196
:10163000AB81BC81F801238D348DF901278948EFF6
:101640005FEF60E070E0203121F048EF5FEF6FEF77
:101650007FE084179507A607B70708F051CFF80178
:1016600086839783A087B18751CFE114F10491F568
:10167000D8011A964D915D916D917C911D9753966D
:101680008D919D910D90BC91A02D481759076A0727
:101690007B0700F10E940A05882309F4B5CF409228
:1016A0000001509201016092020170920301809149
:1016B000D80281608093D80297012D503D4FD5010B
:1016C000C901880D991DF9018E179F0759F04D9199
:1016D0004193FACF41E0C301B2010E944705811155
:1016E000EBCF92CF821B930BA80EB91E69CFF801E6
:1016F00083899489A589B68984179507A607B707B2
:1017000038F48481438B548B658B768B806884831B
:10171000F801848183FD18C0C1010F900F900F90D4
:101720000F90DF91CF911F910F91FF90EF90DF907D
:10173000CF90BF90AF909F908F907F906F905F9071
:101740004F903F902F900895C8010E94D50988239B
:1017500009F45ACFE1CFCF93DF931F92CDB7DEB715
:10176000698341E050E0BE016F5F7F4F0E941C0A19
:101770000F90DF91CF9108959CB59C7F282F237007
:10178000922B9CBD9DB59E7F86958695892B8DBDA0
:101790000895FC01DB0112968D919C911397938320
:1017A000828388E291E09183808314968C911497D0
:1017B000848315968C911597858316964D915D912E
:1017C0006D917C91199746835783608771871A962C
:1017D0004D915D916D917C911D97428753876487F0
:1017E00075871E964D915D916D917C9151974687BD
:1017F0005787608B718B52968C915297828B539640
:101800004D915D916D917C915697438B548B658B77
:10181000768B57964D915D916D917C915A97478B40
:10182000508F618F728F5B968D919C91948F838F77
:101830000895FC01818D928D009711F00C94D509CB
:101840000895DC015996ED91FC913097B9F08389A8
:101850009489A589B6894285538564857585841BDD
:10186000950BA60BB70B811520E89207A105B105D2
:1018700038F08FEF9FE7A0E0B0E0089590E080E0BF
:101880000895CF93DF93EC01E98DFA8D309749F4F9
:1018900081E090E09B838A8390E080E0DF91CF91AC
:1018A000089513821282898D9A8D0E941C0AE98DF7
:1018B000FA8D22813381232B59F7F0CFCF93DF9319
:1018C0001F92CDB7DEB76983DC01ED91FC910280F8
:1018D000F381E02D41E050E0BE016F5F7F4F09953D
:1018E0000F90DF91CF9108952F923F924F925F9288
:1018F0006F927F928F929F92AF92BF92CF92DF9220
:10190000EF92FF920F931F93CF93DF9300D01F921C
:10191000CDB7DEB7FC018581811118C08FEF9FEF35
:101920000F900F900F90DF91CF911F910F91FF902B
:10193000EF90DF90CF90BF90AF909F908F907F906F
:101940006F905F904F903F902F900895848180FF1B
:10195000E5CF438954896589768982859385A485F5
:10196000B585312C212C481759076A077B0719F0D8
:1019700022242394312C6F012101CE0101963C01D8
:10198000DF011696BB83AA834114510409F4C5C034
:10199000F60142855385648575854A01F1E09F22F1
:1019A000D6015B968D919C915C978A019B01E9E041
:1019B0003695279517950795EA95D1F71596EC91E9
:1019C000E230E9F5FC01628D738D848D958D600F99
:1019D000711F821F931FA12C22E0B22EA818B908F4
:1019E0004A145B0408F45201F601248126FD04C068
:1019F000A114F2E0BF0671F4009100011091010101
:101A000020910201309103010617170728073907B3
:101A100009F05EC040E00E944705882309F47ECFAC
:101A2000C4018D509D4FD3019C012A0D3B1DFC012B
:101A30002E173F0709F46CC041914D93F9CFDC019B
:101A40001496BC90BA94B0228114910479F4B11028
:101A50000DC0452B462B472B69F5F6018789908DE4
:101A6000A18DB28D86839783A087B187D6015B96BF
:101A7000ED91FC915C9716966D917D918D919C9165
:101A800019976250710981099109258504C0660F73
:101A9000771F881F991F2A95D2F7068517852089F9
:101AA0003189600F711F821F931F6B0D711D811D86
:101AB000911D91CFD60116964D915D916D917C91BE
:101AC00019972A813B810E945B078111CFCF26CFD6
:101AD000730185019401AB01BC018091F3049091E5
:101AE000F4040E94D303882309F418CF6A0C7B1CEA
:101AF000F60182859385A485B5858A0D9B1DA11D60
:101B0000B11D82879387A487B5874A185B083CCFAD
:101B1000281B390B620E731EEBCF2A94232809F081
:101B2000FDCE898190E0FCCEFC01818D928D0097E5
:101B300011F00C94740C8FEF9FEF08950F931F9387
:101B4000CF93DF93EC01898D9A8D10E000E0009730
:101B500099F00E94740C8C010F3F100769F0898D79
:101B60009A8DFC01428553856485758541505109E4
:101B7000610971090E944708C801DF91CF911F9147
:101B80000F91089508952091B502260F3327331F32
:101B900021323105ECF420914305FC0190E080E016
:101BA000243069F082E00895A091B5022191AC0142
:101BB0004B565D4FA40FB52FB11D2C930196861780
:101BC00098F38091B502680F6093B50280E00895A4
:101BD00081E008951092430581E0809342051092C0
:101BE0001D0561E082E10E94CF0061E083E10E9477
:101BF000CF00E9EBF0E080818E7F808380818D7F54
:101C0000808388E48093B80085E48093BC000895C5
:101C10001092FC041092FB0410924A0510926C057D
:101C20000E94EA0D8DEC90E09093F8048093F70405
:101C30008EEC90E09093F6048093F5040895CF9392
:101C4000DF9391E0909394028823B9F0C091B8009B
:101C5000D091BA008091BC008A7B8093BC0060E088
:101C600082E10E94CF0060E083E10E94CF000E94E9
:101C7000EA0DD093BA00C093B800DF91CF910895D8
:101C80008F929F92AF92BF92CF92DF92EF92FF928C
:101C90000F931F93CF93DF93D0916C05D13208F04F
:101CA000D7C0182FC0916B050E9457016B017C01B2
:101CB0008091430581116BC082E0809343051093AE
:101CC00042058FEF8093410510924005D0933F0568
:101CD000ABE4B5E0EFE1F5E080E0D81391C01092FD
:101CE0001E0580911E05CC0FC82BC0931E05809148
:101CF0001D05813009F088C010921D050E94570112
:101D00006B017C0180911E058093BB00809145058D
:101D100090914605A0914705B0914805892B8A2BE3
:101D20008B2BA1F00E9457010091450510914605AB
:101D300020914705309148056C197D098E099F094E
:101D4000061717072807390708F442C08091BC001E
:101D500083FDD8CF85EC8093BC000E9457016B01B6
:101D60007C0180914305823009F450C08091410587
:101D70008F3F09F46FC080914105803209F46CC037
:101D800080914105803309F469C084E026C08091C8
:101D9000450590914605A0914705B0914805892BCE
:101DA0008A2B8B2B09F484CF0E9457018090450524
:101DB00090904605A0904705B09048056C197D09A4
:101DC0008E099F0986169706A806B90608F070CFF7
:101DD000809144050E941F0E85E010924A051092E2
:101DE0006C0510924905DF91CF911F910F91FF90E3
:101DF000EF90DF90CF90BF90AF909F908F9008951D
:101E00009D9191938F5F69CF85EEA5CF8091450518
:101E100090914605A0914705B0914805892B8A2BE2
:101E20008B2B09F49ECF0E9457010091450510911C
:101E3000460520914705309148056C197D098E09AA
:101E40009F09061717072807390708F08ACFC0CF60
:101E500081E0C3CF80E0C1CF82E0BFCF83E0BDCFC0
:101E6000CF93DF93EC018B818823A1F0888191E0EF
:101E70009093490580936B0510924A0510926C056A
:101E800081E00E94400E91E0811190E0892FDF9166
:101E9000CF9108950E94080E81E08B83CE010E94AD
:101EA000300F982F8111E2CFF1CF0895E091FC041B
:101EB0008091FB04E81730F4F0E0E350FB4F8081A1
:101EC00090E008958FEF9FEF08959091FC0480912A
:101ED000FB042FEF3FEF981748F4E92FF0E0E350B1
:101EE000FB4F208130E09F5F9093FC04C90108956F
:101EF0008091FB049091FC04891B990B0895CF926B
:101F0000DF92EF92FF920F931F93CF93DF937C01A9
:101F1000CB018A0120914905222389F0EB016B0155
:101F2000C40ED51ECC15DD0569F06991D701ED9180
:101F3000FC910190F081E02DC7010995F3CF642F4A
:101F40000E94C30DC801DF91CF911F910F91FF90A7
:101F5000EF90DF90CF900895CF93DF931F92CDB78E
:101F6000DEB76983209149052223F9F020916C05A1
:101F7000203258F021E030E0FC013383228390E0EE
:101F800080E00F90DF91CF91089580914A05E82F6E
:101F9000F0E0E55BFA4F998190838F5F80934A056B
:101FA00080936C0581E090E0ECCF61E0CE0101967A
:101FB0000E94C30DF7CFFC01248131E03093490525
:101FC00020936B0510924A0510926C058485682B4E
:101FD00084E596E00E94AC0F81E00C94400E90E006
:101FE00080E00895CF92DF92EF92FF92CF93DF933C
:101FF000DC011796CC911797D0E06111DC2F189671
:102000002C91189730E0220F331F28583F4F50E093
:1020100040E0F90185919491FC01F080BA0190E0D3
:1020200080E0EF2DEC23ED1310C04F5F5F4F1D9646
:10203000CD90DD90ED90FC9050976C157D058E0550
:102040009F0538F36FEF7FEFCB01DF91CF91FF90CA
:10205000EF90DF90CF9008958F929F92AF92BF92B2
:10206000CF92DF92EF92FF920F931F93CF93DF9364
:10207000CDB7DEB7C054D1400FB6F894DEBF0FBE67
:10208000CDBF8C010E94AF01F801C184D284E384EA
:10209000F4849B01AC012C193D094E095F096901CB
:1020A0007A0130EDC31637E0D306E104F104A8F459
:1020B0008189C05CDE4F0FB6F894DEBF0FBECDBF86
:1020C000DF91CF911F910F91FF90EF90DF90CF9014
:1020D000BF90AF909F908F9008956187728783879C
:1020E00094871482138212821182108262E08581A9
:1020F0000E941B0161E070E080E090E00E947C01A2
:1021000061E0F80185810E941B0160E0F801858192
:102110000E94CF00F80186818551823028F58BE23C
:1021200091E10197F1F762E0F80185810E941B01BE
:10213000F801828990E08230910538F0880F991F6C
:10214000880F991F05970197F1F7F89460E0C8018F
:102150000E94F20F6F3F7F4F8F4F9F4F61F4F80146
:10216000118A789480E0A5CF64E170E080E090E08F
:102170000E947C01D8CF61E0C8010E94F20F6F3F3E
:102180007F4F8F4F9F4F59F39E012F5F3F4F790134
:102190005E013FEBA31A3EEFB30A670160E0C8019E
:1021A0000E94F20FF601608371838283938361E062
:1021B000C8010E94F20FF6016483758386839783BA
:1021C000F8E0CF0ED11CCA14DB0441F7789430E05C
:1021D00020E0F70180809180A280B3804481558106
:1021E00066817781FFEF8F169F06AF06BF0631F03D
:1021F0004F3F8FEF58076807780719F4F801118AE5
:10220000B1CFF90183E0F595E7958A95E1F7E00F05
:10221000F11F8081880F84169506A606B706F0F098
:1022200080832F5F3F4FF8E0EF0EF11C283231051D
:1022300081F6F801448120818181280F3327331FE3
:102240008281280F311D8381820F932F911D992741
:102250004817190699F681E0818B2BCF8160E0CF7A
:10226000FC0183898B3051F480E492E4AFE0B0E06C
:10227000FB0184A395A3A6A3B7A3089580E894E8DF
:10228000AEE1B0E0F5CF089508952F923F924F92BE
:102290005F926F927F928F929F92AF92BF92CF92F6
:1022A000DF92EF92FF920F931F93CF93DF935C0126
:1022B0001B016A01F12CE12CD50114968D919C91A2
:1022C00086010E191F098017910708F48C01F5018A
:1022D000D0810E9457012B013C018091430581115F
:1022E00072C0C02F013208F0C0E2F1E0F093430564
:1022F00021E0C601801B910BE816F90608F420E0E6
:10230000209342058FEF80934105109240058C0F7A
:1023100080933F05A1E0A0931E0580911E05DD0F6F
:10232000D82BD0931E0580911D05813009F090C0F7
:1023300010921D050E9457012B013C0180911E0542
:102340008093BB008091450590914605A09147057B
:10235000B0914805892B8A2B8B2BA1F00E94570145
:10236000209145053091460540914705509148051B
:102370006419750986099709261737074807590709
:1023800008F442C08091BC0083FDD8CFB5ECB09377
:10239000BC000E9457012B013C0180914305813014
:1023A00009F45AC0809140058C1710F4C091400583
:1023B000AFE1B5E0EDEFF4E080E08C1751F19D91D5
:1023C00091938F5FFACF8091450590914605A0913A
:1023D0004705B0914805892B8A2B8B2B09F47DCFBB
:1023E0000E945701209145053091460540914705CF
:1023F000509148056419750986099709261737070A
:102400004807590708F069CF809144050E941F0EC4
:10241000C0E01092FC04C093FB04C017110609F041
:1024200057C041018E0C9F1CE401CE018819990907
:102430008017910798F5D50111968D919C91DC013B
:10244000ED91FC910284F385E02D09958993EDCF00
:10245000E5EEE093BC009DCF809145059091460547
:10246000A0914705B0914805892B8A2B8B2B09F445
:1024700094CF0E9457012091450530914605409127
:10248000470550914805641975098609970926176B
:1024900037074807590708F080CFB6CFE00EF11E86
:1024A000EC14FD0408F408CF81E0DF91CF911F9177
:1024B0000F91FF90EF90DF90CF90BF90AF909F90E3
:1024C0008F907F906F905F904F903F902F900895E6
:1024D00080E0EBCF1F93CF93DF93DC011496ED9157
:1024E000FC91E417F50710F490E01FC0122FEA01E9
:1024F000FC0181819281208131E030934905209354
:102500006B0510924A0510926C05DC01ED91FC916F
:102510000280F381E02D0995C817D90729F7812F8B
:102520000E94400E91E08111DFCF892FDF91CF9182
:102530001F910895CF93DF9300D0CDB7DEB78FE022
:102540008A8321E041E050E0BE016E5F7F4F8091C1
:10255000F9049091FA040E946A1241E050E0BE0131
:102560006F5F7F4F8091F9049091FA040E944511AA
:1025700089810F900F90DF91CF910895CF92DF92D4
:10258000EF92FF921F93CF93DF93EC0180E2689F5D
:10259000F0011124ED50FD4F9385917161F0842F6E
:1025A000827449F080E0DF91CF911F91FF90EF900E
:1025B000DF90CF900895142F6A8B80910001909145
:1025C0000101A0910201B09103018E879F87A88B22
:1025D000B98BC488D588F12CE12C7601DD24CC247C
:1025E000CF8AD88EE98EFA8E828D938DB0E0A0E0EE
:1025F000AC01BD014C295D296E297F294F8B588F75
:10260000698F7A8F83858871B1F4848D958DA68DBD
:10261000B78D8B8B9C8BAD8BBE8B81E08D831F70B8
:102620001C831E821F82188619861A861B861C86AA
:102630001D8681E0B8CF803109F0B4CF9E012D5EB8
:102640003F4F8B8D9C8D0E94DC07882309F4AACF15
:1026500084E0E4CF0F931F93CF938C01C62F0E9489
:10266000DB0F6C2F6460C8010E94DB0F6C2F6B7F47
:10267000C8010E94DB0F83EC90E00197F1F7CF9146
:102680001F910F9108950F931F93CF93DF938C01A8
:10269000D62FC42F607F642B0E942A1380E1D89F1D
:1026A000B00111246C2BC801DF91CF911F910F91C4
:1026B0000C942A13CF93DF93CDB7DEB728970FB6CC
:1026C000F894DEBF0FBECDBF98E0EAE0F1E0DE0196
:1026D000119601900D929A95E1F79091A90698179D
:1026E00008F48FEF90E0880F991F21E030E02C0F65
:1026F0003D1F820F931FFC016081606840E081EA0A
:1027000096E028960FB6F894DEBF0FBECDBFDF91DE
:10271000CF910C94431341E00E94431381E090E079
:1027200008950C9403260C940326CF93DF93EB01BA
:10273000FC0183894BE050E06CE771E08C30C1F024
:1027400058F44BE050E069EA71E08B3089F04BE0DF
:1027500050E06EE871E00CC04BE050E062E871E0E0
:10276000853131F04BE050E068E871E0863179F76F
:10277000CE010E9499261B86DF91CF910895FB011F
:1027800001900020E9F73197AF01461B570BDC01A0
:10279000ED91FC910280F381E02D0994CF93DF93BA
:1027A0000E94A802EC0163E971E08DE695E00E94C9
:1027B000BF138C0F9D1FDF91CF9108958F929F9231
:1027C000AF92BF92EF92FF920F931F93CF93DF933D
:1027D000CDB7DEB7A1970FB6F894DEBF0FBECDBF61
:1027E0007C01FA01CB0119A2223008F42AE08E0103
:1027F0000F5D1F4F822E912CB12CA12CBF01A50182
:1028000094010E942724F901CA016A300CF5605D29
:10281000D8016E938D01232B242B252B79F790E083
:1028200080E0109721F0BD01C7010E94BF13A1965F
:102830000FB6F894DEBF0FBECDBFDF91CF911F91D1
:102840000F91FF90EF90BF90AF909F908F90089561
:10285000695CDECF462F50E070E060E02AE00C9427
:10286000DE132F923F924F925F926F927F928F92E0
:102870009F92AF92BF92CF92DF92EF92FF921F93FF
:10288000CF93DF93EC016A017B01722EAB019601BD
:10289000CB01B6010E94622566E971E0811126C074
:1028A00046015701E894B7F82FEF3FEF4FE75FE796
:1028B000C501B4010E94622581110CC02FEF3FEFCA
:1028C0004FE75FE7C501B4010E94C9226AE971E0E0
:1028D000181664F02FEF3FEF4FE75FE4C701B60132
:1028E0000E945D251816B4F46EE971E0CE01DF9107
:1028F000CF911F91FF90EF90DF90CF90BF90AF905E
:102900009F908F907F906F905F904F903F902F900F
:102910000C94BF132FEF3FEF4FE75FECC701B601F9
:102920000E94C92287FDE0CF20E030E0A901C70165
:10293000B6010E94C922312C212C87FF0DC0E881ED
:10294000F9810190F081E02D6DE2CE0109951C0125
:10295000F7FAF094F7F8F09410E060E070E080E0AF
:102960009FE3711641F020E030E040E251E40E9424
:10297000BC241F5FF6CFA70196010E9450242B01B3
:102980003C010E942E254B015C012AE0BC01A40100
:10299000CE010E94DE137C01E20CF31C1123E1F155
:1029A000C501B4010E94CE229B01AC01C301B2015A
:1029B0000E944F244B015C01E881F9810190F08174
:1029C000E02D6EE2CE010995E80EF91E115020F1BE
:1029D00020E030E040E251E4C501B4010E942F2321
:1029E0002B013C010E942E254B01B12CA12C2AE089
:1029F000B501A401CE010E94DE13E80EF91EC50147
:102A0000B4010E94CE229B01AC01C301B2010E941D
:102A10004F244B015C01DACFC701DF91CF911F91A9
:102A2000FF90EF90DF90CF90BF90AF909F908F90EE
:102A30007F906F905F904F903F902F9008950F93ED
:102A40001F93CF93DF93EC010E94BF138C0163E9C6
:102A500071E0CE010E94BF13800F911FDF91CF91D3
:102A60001F910F9108950C94BF133F924F925F9264
:102A70006F927F928F929F92AF92BF92CF92DF928E
:102A8000EF92FF920F931F93CF93DF93CDB7DEB7F3
:102A90002B970FB6F894DEBF0FBECDBF7C01FE01B1
:102AA0003196CE010C966F0130E23193E817F907A9
:102AB000E1F7DA0130E087E09D91B92E992309F41E
:102AC0003CC09E32F1F48A30C9F480E02B960FB6F8
:102AD000F894DEBF0FBECDBFDF91CF911F910F9154
:102AE000FF90EF90DF90CF90BF90AF909F908F902E
:102AF0007F906F905F904F903F90089538E08AE00C
:102B0000DBCFE8E6F0E04491442321F031969413C2
:102B1000FACFDBCF8317C8F24FED490F4E35A8F639
:102B20004FE9490F4A3118F440EEB42EB90EF601C0
:102B3000E30FF11DB0823F5FBFCF8981803229F260
:102B4000322E8B01DB015B968D919C915C97F70196
:102B5000948F838F16961D921D921D921C92199729
:102B6000FB011286138614861586F80182859385EB
:102B7000A485B58543895489658976898417950725
:102B8000A607B70708F04DC025E0B695A79597951D
:102B900087952A95D1F7F82FFF70AF2ED80115969B
:102BA0008C91823008F491CFC8010E94740C97FD7B
:102BB0008CCFF80182859385A485B5854F96A11D9C
:102BC000B11D82879387A487B587F0E2AF9EB001DD
:102BD00011246D507D4F6115710509F476CFDB012D
:102BE0008C91882341F0853E09F061C0BB2029F01B
:102BF000BB24B394BACFB1100EC0F701A28A809162
:102C0000000190910101A0910201B091030186871A
:102C10009787A08BB18BDB018C918111E9CFBB240D
:102C2000B394832D8271823109F04FCFBB2009F418
:102C30004CC0F701668577858089918941E00E94C3
:102C40004705882309F441CFD70152968C91B0E211
:102C50008B9FC00111248D509D4F009709F435CFF3
:102C6000FC013A9626E1DF011D922A95E9F72BE057
:102C7000F601DC0101900D922A95E1F721E238E29C
:102C8000FC01318B208B40E058E057874687338B1F
:102C9000228B318F208F578B468B0E940A05882309
:102CA00009F413CF432DD70152966C910AC04BE023
:102CB00050E0C6010E948C26892B09F056CF432D87
:102CC0006A2DC7010E94BE1201CFF80185818230B2
:102CD00009F4FBCEC8010E94DB08882309F4F5CE75
:102CE000D8015B96ED91FC915C9716968D909D9026
:102CF000AD90BC901997B2E08B1A9108A108B10869
:102D0000858504C0880C991CAA1CBB1C8A95D2F727
:102D100086859785A089B189880E991EAA1EBB1E3B
:102D2000848124013501480E511C611C711C8414DE
:102D30009504A604B70401F1E1E04E1A51086108B8
:102D400071080E940A05882309F4BFCEE3EFF2E080
:102D5000119283EF94E08E179F07D1F74092000104
:102D60005092010160920201709203018091D80299
:102D700081608093D802DBCFD8015B96ED91FC9106
:102D8000258580E092E0A0E0B0E004C0880F991FA4
:102D9000AA1FBB1F2A95D2F7F80143895489658978
:102DA0007689840F951FA61FB71F838B948BA58BE5
:102DB000B68BD70152961C9283EF92E051CF0F93BE
:102DC0001F93CF93DF938C01EB0188E2DB011D920F
:102DD0008A95E9F7F801838194810E94951381E037
:102DE00090E0A0E0B0E08C879D87AE87BF87F801B8
:102DF00085819681A781B085888B998BAA8BBB8BA7
:102E00008CE090E0A0E0B0E08C8B9D8BAE8BBF8B14
:102E1000BE01838194810E943011D8011396ED91F7
:102E2000FC9183898C3009F441C078F48B3009F12E
:102E3000188E198E1A8E1B8E1C8E1D8E1E8E1F8E46
:102E400018A219A21AA21BA22CC08551823080F7A9
:102E500080E090E0A8ECB2E4888F998FAA8FBB8FB6
:102E60001C8E1D8E1E8E1F8E8DEC9CECACECBDE37B
:102E700014C080E090E0A0EAB2E4888F998FAA8F16
:102E8000BB8F80E090E0A0EAB1E48C8F9D8FAE8F85
:102E9000BF8F80E090E0A0EAB0E488A399A3AAA342
:102EA000BBA3DF91CF911F910F91089580E090E037
:102EB000AEEBB2E4E2CFCF92DF92EF92FF920F93AC
:102EC0001F93CF93DF938C01EB01FB01349680E2DB
:102ED000DF011D928A95E9F784E290E0A0E0B0E07E
:102EE00088839983AA83BB83F80185819681A78112
:102EF000B0858C839D83AE83BF838CE090E0A0E09F
:102F0000B0E088879987AA87BB870E94AF01688B4A
:102F1000798B8A8B9B8BD80113960D911C91C801DC
:102F20000E942C10882349F0F80186818B3028F00C
:102F30008D3040F08551823070F160E070E080ECBF
:102F40009FE71BC0618170E090E080E00E94D0228A
:102F50002DEC3CEC4CEC5DE30E942F236B017C01DB
:102F6000F801608170E090E080E00E94D0229B0137
:102F7000AC01C701B6010E9450246C8B7D8B8E8BF7
:102F80009F8B81E0DF91CF911F910F91FF90EF9088
:102F9000DF90CF900895608171817627672776272B
:102FA00090E080E00E94CE222DEC3CEC4CEC5DE306
:102FB0000E942F23E2CF0F931F93CF93DF938C01B7
:102FC000EB0188E2DB011D928A95E9F7F801838124
:102FD00094810E94951381E090E0A0E0B0E08C879E
:102FE0009D87AE87BF87F80185819681A781B085CF
:102FF000888B998BAA8BBB8B8DE090E0A0E0B0E032
:103000008C8B9D8BAE8BBF8BBE01838194810E9484
:103010003011D8011396ED91FC9183898C3091F198
:1030200078F48B30B1F0188E198E1A8E1B8E1C8E90
:103030001D8E1E8E1F8E18A219A21AA21BA21DC0C1
:103040008531A9F1863179F780E090E0AAEFB2E40A
:1030500032C080E090E0A8E4B2E4888F998FAA8F14
:10306000BB8F1C8E1D8E1E8E1F8E80E090E0A0E018
:10307000B0E488A399A3AAA3BBA3DF91CF911F912A
:103080000F91089580E090E0A0E7B2E4888F998FD7
:10309000AA8FBB8F80E090E0A0EAB1EC8C8F9D8F6F
:1030A000AE8FBF8F80E090E0A0E0BFE3E2CF80E092
:1030B00090E0A0EAB2E4888F998FAA8FBB8F80E05E
:1030C00090E0A0E2B2EC8C8F9D8FAE8FBF8F8DEC25
:1030D0009CECACECBDE3CDCF8F929F92AF92BF92B0
:1030E000EF92FF921F93CF93DF937C01EB01FB01E3
:1030F000349680E2DF011D928A95E9F784E290E040
:10310000A0E0B0E088839983AA83BB83F70185811F
:103110009681A781B0858C839D83AE83BF838DE02C
:1031200090E0A0E0B0E088879987AA87BB870E94DB
:10313000AF01688B798B8A8B9B8BD7011396ED90AF
:10314000FC90C7010E942C10882341F0F701868172
:103150008C3009F455C038F48B30E1F060E070E059
:1031600080EC9FE73EC085518230C0F71281612F0D
:1031700070E0762F662766277F778381682B90E043
:1031800080E00E94CE222DEC3CEC4CEC5DE30E94F2
:103190002F2351C0628170E090E080E00E94CE2237
:1031A0004B015C01F701138117FF0AC0AC019B01C1
:1031B00060E070E080E89FEB0E944F244B015C01CF
:1031C0001F70612F70E090E080E00E94D0222DEC13
:1031D0003CEC4CEC5DE30E942F23A50194010E947E
:1031E00050246C8B7D8B8E8B9F8B81E0DF91CF91F8
:1031F0001F91FF90EF90BF90AF909F908F90089598
:103200001281612F70E090E080E00E94CE224B019D
:103210005C01F70163816F7070E090E080E00E94D4
:10322000D0222DEC3CEC4CEC5DE30E942F23A50159
:1032300094010E94502417FFD4CF9058D2CFEF9220
:10324000FF920F931F93CF93DF93EC017B018A01D1
:103250001B821A8288EE93E0A0E0B0E08C839D830D
:10326000AE83BF8382E691E0998388838DE190E00D
:103270000E9467259A8F898F009779F02DE1F701D9
:10328000DC0101900D922A95E1F74CE050E0B80185
:10329000CE010C960E949926188EDF91CF911F9136
:1032A0000F91FF90EF90089585ED8093BC00809181
:1032B000450590914605A0914705B09148050796B0
:1032C000A11DB11D23E0B695A795979587952A95E1
:1032D000D1F72091BC0024FD03C01092430508954E
:1032E000409145055091460560914705709148050C
:1032F000452B462B472B69F30097A105B10541F0FB
:1033000025E32A95F1F700000197A109B109E1CF62
:10331000809144050C941F0E1F920F920FB60F92CE
:1033200011242F933F938F939F93AF93BF938091DB
:10333000EB029091EC02A091ED02B091EE0230917F
:10334000EA0223E0230F2D3758F50196A11DB11D88
:103350002093EA028093EB029093EC02A093ED029B
:10336000B093EE028091EF029091F002A091F102F1
:10337000B091F2020196A11DB11D8093EF029093CE
:10338000F002A093F102B093F202BF91AF919F912E
:103390008F913F912F910F900FBE0F901F90189516
:1033A00026E8230F0296A11DB11DD2CF1F920F92C6
:1033B0000FB60F9211242F933F934F935F936F9308
:1033C0007F938F939F93AF93BF93EF93FF938DE67C
:1033D00095E00E943902FF91EF91BF91AF919F91CB
:1033E0008F917F916F915F914F913F912F910F90AE
:1033F0000FBE0F901F9018951F920F920FB60F924D
:1034000011242F938F939F93EF93FF93E0917D056A
:10341000F0917E058081E0918305F091840582FD25
:103420001BC09081809186058F5F8F7320918705E7
:10343000821741F0E0918605F0E0E359FA4F958F4D
:1034400080938605FF91EF919F918F912F910F901F
:103450000FBE0F901F9018958081F4CF1F920F928E
:103460000FB60F9211242F933F934F935F936F9357
:103470007F938F939F93AF93BF93EF93FF9380912D
:10348000B900887F803609F44AC0F0F5883209F423
:10349000A7C018F5803109F49BC0B8F4882309F45B
:1034A000F9C0883009F494C0FF91EF91BF91AF91BA
:1034B0009F918F917F916F915F914F913F912F914C
:1034C0000F900FBE0F901F901895883109F488C097
:1034D000803251F78093410514C0803409F49DC0B7
:1034E00040F48033B9F38833F9F68093410585ECD5
:1034F000B0C0803509F485C0883509F496C0883499
:1035000099F60E945419D0CF883909F48CC038F547
:10351000883729F050F4883611F0803729F683E097
:10352000809343051092D70257C0883809F47BC0B6
:10353000803919F0803809F0B7CF8091D7028032F6
:1035400008F071C0E091D70281E08E0F8093D7021E
:103550008091BB00F0E0E954FD4F80833DC0803B8B
:1035600039F0E0F4803A09F479C0883A09F09CCF48
:1035700084E0809343051092B6021092B502E09168
:10358000F704F091F80409958091B50281110FC0FC
:1035900081E08093B5021092950209C0803C09F445
:1035A000A6CF883C09F4A3CF883B09F07DCFE091FA
:1035B000B60281E08E0F8093B602F0E0EB56FD4F2D
:1035C00080818093BB009091B6028091B50229C0A2
:1035D00080911E058093BB0085EC8093BC0064CF76
:1035E0009091400580913F05981758F5E09140056E
:1035F00081E08E0F80934005F0E0E15EFA4F80811C
:10360000E9CFE091400581E08E0F809340058091E5
:10361000BB00F0E0E15EFA4F80839091400580911D
:103620003F059817C8F285E8D8CFE091400581E0C2
:103630008E0F809340058091BB00F0E0E15EFA4F71
:1036400080838091420581115CCF81E080931D05CC
:1036500084EA8093BC001092430526CF85EC8093CA
:10366000BC00109243058091D702803230F4E09183
:10367000D702F0E0E954FD4F10826091D70270E06C
:10368000E091F504F091F60487EB92E00995109231
:10369000D7020ACF1092410534CFFC01908190539C
:1036A0009A3008F090E0818180532AE0929F800D4B
:1036B00011240895EDE6F5E01382128288EE93E07E
:1036C000A0E0B0E084839583A683B78326E131E050
:1036D0003183208325EC30E03587248724EC30E0EB
:1036E0003787268720EC30E0318B208B21EC30E0CF
:1036F000338B228B22EC30E0358B248B26EC30E0B0
:10370000378B268B118E128E138E148EEAE0F6E024
:10371000158216821186138642E050E060E070E068
:10372000458756876787708B14A216A615A628E2D0
:1037300031E034A723A710AAE4E5F6E01382128251
:1037400084839583A683B78324E331E03183208388
:10375000E1EAF6E01382128224E731E0318320832C
:10376000118627E2248320E1228722E02387148622
:10377000E6E8F6E01382128284839583A683B783FA
:1037800082E691E091838083128E118E1486A0E6EA
:10379000B6E088E015968C9315978BE016968C937F
:1037A0001697E8E3F1E0E4911796EC931797E4E2BB
:1037B000F1E0E4911896EC93189740E85EE360E03E
:1037C00070E01D964D935D936D937C935097539647
:1037D0008C93539784E591E055969C938E935497E0
:1037E0000A2E1B2E58961C920E92112457974FEFBB
:1037F0005FEFBA0159964D935D936D937C935C97FF
:1038000086E491E05E969C938E935D970A2E1B2E24
:1038100091961C920E921124909792964D935D93DF
:103820006D937C9395970895CF93DF93CDB7DEB7D3
:10383000C659D1090FB6F894DEBF0FBECDBF78943C
:1038400084B5826084BD84B5816084BD85B58260A5
:1038500085BD85B5816085BD80916E008160809356
:103860006E001092810080918100826080938100BF
:1038700080918100816080938100809180008160CF
:10388000809380008091B10084608093B10080912A
:10389000B00081608093B00080917A008460809352
:1038A0007A0080917A00826080937A0080917A0019
:1038B000816080937A0080917A00806880937A009A
:1038C0001092C100E0917D05F0917E0582E0808339
:1038D000E0917905F0917A051082E0917B05F091F5
:1038E0007C058FEC808310928505E0918105F09135
:1038F000820586E08083E0917F05F09180058081DC
:1039000080618083E0917F05F091800580818860EF
:103910008083E0917F05F0918005808180688083BD
:10392000E0917F05F091800580818F7D808362E04A
:10393000809165060E941B010E94AF01605D774087
:10394000810991096093690670936A0680936B06FA
:1039500090936C0687E3809372060E94080E109283
:10396000A6068091AC06823018F098E09093A606E7
:103970008093A90662E370E080E090E00E947C0101
:103980006091AD0681EA96E00E94DB0F68EE73E07D
:1039900080E090E00E947C0160E381EA96E00E9472
:1039A0002A135BE4E52E56E4F52EC7010197F1F7E3
:1039B00060E381EA96E00E942A13C7010197F1F7BC
:1039C00060E381EA96E00E942A1383E592E0019782
:1039D000F1F760E281EA96E00E942A136091A60660
:1039E000606240E081EA96E00E94431384E08093A5
:1039F000A70640E06CE081EA96E00E94431340E0B5
:103A000061E081EA96E00E9443138BE39FE1019716
:103A1000F1F78091AA06882319F080E00E945A13DA
:103A200082E08093A80640E066E081EA96E00E948A
:103A3000431340E062E081EA96E00E9443138BE387
:103A40009FE10197F1F788E08093AD0660E081EA9D
:103A500096E00E94DB0F80E00E945A1362EA71E058
:103A600081EA96E00E9433156FEA71E08DE695E0F9
:103A70000E94331561E08AE00E941B011092150636
:103A8000109213061092100610920F06109216064E
:103A900084E080930E068FEF8093E9028093E80222
:103AA0008093E7020E94AF017B0161E080910E06E6
:103AB0000E941B018AE096E00E94E3020FB7F8948F
:103AC0008091DD02811127C0E6E2F1E08491EAE312
:103AD000F1E09491E82FF0E0EE0FFF1FEC50FF4F64
:103AE000A591B491EC91E92321F461E08AE00E9470
:103AF000CF0061E08AE00E941B018CB580618CBD23
:103B00008CB580648CBD61E08DE00E941B0161E09A
:103B10008BE00E941B018091DD028F5F8093DD02AC
:103B20000FBF83E00E94BC0B0AE08FEF0E943803B6
:103B30000150D9F760E080910E060E94CF0020E08E
:103B400030E0A90160E08AE096E00E947503D82E7B
:103B50008093140681E0D81609F491C20E94AF0147
:103B60006E197F09613D774050F381E080930F0625
:103B70008AE096E00E94E3026CED71E08DE695E04C
:103B80000E941F1576E4E72E71E0F72EE8E2CE2EB4
:103B9000E1E0DE2EF8EE4F2EF3E05F2E612C712C6B
:103BA000A2E6AA2EA1E0BA2E60E0862E60E0962E54
:103BB00060E070E0CB010E947C01809176068FA3CB
:103BC00084E591E09EA38DA380917706909178067D
:103BD00099A788A78091790690917A06A0917B0693
:103BE000B0917C068AA79BA7ACA7BDA7BE016F5F5B
:103BF0007F4FCE0185960E946C186D897E898F89D2
:103C0000988D9B01AC010E946225882309F464C44D
:103C100089ED90E00E94CE1380917F068FA3FEA2D3
:103C2000EDA2809180069091810699A788A7809146
:103C3000820690918306A0918406B09185068AA79A
:103C40009BA7ACA7BDA7BE016F5F7F4FCE01859636
:103C50000E945B176D897E898F89988D9B01AC01CD
:103C60000E946225811148C48CEB90E00E94A8025A
:103C70004D895E896F89788D22E08DE695E00E94FE
:103C800031148AEB90E00E94CE1369E272E08DE677
:103C900095E00E9433154D895E896F89788D22E009
:103CA0008DE695E00E9431146DE272E08DE695E0BC
:103CB0000E94331563E372E08DE695E00E943315B0
:103CC0004D895E896F89788D22E08DE695E00E94AE
:103CD000311467E372E08DE695E00E941F151DA286
:103CE0000091F9041091FA0420E041E050E0BE0197
:103CF0006B5D7F4FC8010E946A12882341F047E044
:103D000050E0BE016B5D7F4FC8010E9445112DA19F
:103D10002F77822F90E034E0959587953A95E1F7DB
:103D2000982F990F990F182F191B110F120F2EA1F1
:103D3000822F90E044E0959587954A95E1F7982F7A
:103D4000990F990F082F091B000F020F2FA1822F27
:103D500090E054E0959587955A95E1F7982F990F43
:103D6000990F382E391A330C320E632D8DE695E0FB
:103D70000E942A146CE372E08DE695E00E943315F0
:103D8000602F8DE695E00E942A146CE372E08DE6C8
:103D900095E00E943315612F8DE695E00E942A146C
:103DA00063E971E08DE695E00E94BF1380E00E9418
:103DB0005A13632D81EA96E00E942A146BE272E0A6
:103DC00081EA96E00E943315602F81EA96E00E9416
:103DD0002A146BE272E081EA96E00E943315612FAB
:103DE00081EA96E00E942A146EE372E081EA96E08E
:103DF0000E94331564EF71E080E090E00E947C0146
:103E000080E00E945A1364E472E081EA96E00E9426
:103E100033154D895E896F89788D22E081EA96E0BD
:103E20000E9431146AE472E081EA96E00E94331540
:103E300081E00E945A1361E572E081EA96E00E94F7
:103E400033154D895E896F89788D22E081EA96E08D
:103E50000E94311466E572E081EA96E00E94331513
:103E600064EF71E080E090E00E947C0120E030E0AF
:103E70004CE052E46D897E898F89988D0E945D2582
:103E800061E018160CF060E087E00E94CF0065E367
:103E900076E0CE0185960E94C90BBE016B5D7F4F17
:103EA000CE01815A9F4F0E94C90B26961FAE1EAEAF
:103EB00026972496DFAECEAE249728961FAE28977D
:103EC000A5968FADA59781111AC3C258DF4F1982ED
:103ED0001882CE57D040C058DF4F488259826A823C
:103EE0007B82C058D040EE96BFAEAEAEEE97CB56BA
:103EF000DF4F19821882C559D040C857DF4F18824A
:103F0000C858D040C258DF4F88819981CE57D040E1
:103F10009093890680938806C058DF4F88819981E5
:103F2000AA81BB81C058D04080938A0690938B06AB
:103F3000A0938C06B0938D06CC57DF4F8881998172
:103F4000AA81BB81C458D04080938E0690938F067F
:103F5000A0939006B0939106ACE7B0E0AC0FBD1F04
:103F60001C96E2E9F6E08D91819396E0EF39F9072E
:103F7000D1F7CB56DF4FE881F981C559D040F09396
:103F8000A006E0939F06309709F4F7C28581882345
:103F900009F4F3C26CE572E08DE695E00E943315FA
:103FA000632D86E896E00E942A146BE272E086E8B0
:103FB00096E00E943315602F86E896E00E942A144E
:103FC0006BE272E086E896E00E943315612F86E886
:103FD00096E00E942A146BE272E086E896E00E9466
:103FE00033154D895E896F89788D22E086E896E0E9
:103FF0000E9431146BE272E086E896E00E9433156D
:104000004D895E896F89788D22E086E896E00E946E
:1040100031146BE272E086E896E00E94331563E7A4
:1040200072E086E896E00E941F1580919F069091AD
:10403000A006009761F00E94100A80919F0690915F
:10404000A0060E9403261092A00610929F0666ED1D
:1040500071E08DE695E00E941F1564E670E080E057
:1040600090E00E947C018114910409F4A1CD0E948A
:104070002502882309F498CD0E94000095CD2AEAF4
:1040800031E040E050E068E08AE096E00E9475038D
:1040900082FF2AC0D092150680911506812C912CA2
:1040A0005401823029F4812C912CA12C30E4B32EC0
:1040B00020E030E0A90167E38AE096E00E94750302
:1040C000A501940169E28AE096E00E94750380935D
:1040D00014068823C1F00E94AF016E197F09613D6B
:1040E000774030F388E042CD04E00E94E8028093FC
:1040F00014060150D1F78A3A11F082E037CD82E000
:1041000080931506C9CF809115068230D1F420E046
:1041100030E0A9016AE38AE096E00E9475038823F3
:1041200011F086E023CD0E94E802807C803C19F4E7
:1041300083E0809315060E94E8020E94E8020E9434
:10414000E8028AE096E00E94E3028091E7028F3F56
:1041500019F480E00E94BC0B81E00E949005882346
:1041600009F4B5C080913A06811106CD80912E06E2
:10417000803109F0B3C082E080933A0610924C0679
:1041800010924D0610924E0610924F0680912F0607
:1041900090913006B0E0A0E025E0880F991FAA1F9B
:1041A000BB1F2A95D1F78093480690934906A093A8
:1041B0004A06B0934B0687E196E0909351068093B0
:1041C000500681E08093390610923B0610923C061F
:1041D00010923D0610923E0610923F061092400645
:1041E0001092410610924206109243061092440625
:1041F00010924506109246061092470667EC71E051
:104200008DE695E00E941F158091F9049091FA04C3
:10421000009709F082C086E090E00E9467257C014B
:1042200088E6F701808384E596E092838183138298
:1042300080E290E095838483F092FA04E092F9049E
:104240000E94080E81E0F7018383C7010E94300FAE
:10425000882309F465C00E949A1290E0880F892F84
:10426000881F990B892B09F48DCC65E072E08DE6EF
:1042700095E00E941F154BE050E066E970E0CE012A
:1042800001960E94C022CE010A960E944D1B082F63
:10429000E981E154E33108F055C00E2E000CFF0B0C
:1042A000EC5AFE4D0C944924F621A221A2210A22A7
:1042B000A221A121A221A221A221EA21A221A2219F
:1042C000FD2108220622A221A221A221042280E0AF
:1042D0000E949005882309F44FCC44CF803209F026
:1042E0004BCC83E080933A064091310650913206E0
:1042F000609133067091340640934C0650934D06FE
:1043000060934E0670934F0628E436E087E196E00E
:104310000E94DC0781114FCF2FCC0E9403267BCF58
:1043200063EF71E08DE695E00E941F158DE695E044
:104330000E94C3026AE070E080E090E00E947C018D
:10434000F9CF12E0CE0105960E944D1BF82E48E0F1
:1043500050E06DE870E0CE0101960E94C022CE01CF
:1043600001960E944D1BE82ECE0104960E944D1B23
:10437000C82ECE0107960E944D1B382F1A82198233
:104380002AE0622F0E940724982F880F890F880F38
:10439000830F8A838C2D0E940724982F880F890F02
:1043A000880F8C0D8B838E2D0E940724982F880FE9
:1043B000890F880F8E0D8C83602F70E02F2D30E0D9
:1043C000E2E8F0E0D11640F58491280F311DD39436
:1043D0003196F8CF8A8111E0813609F4B3CF8B8111
:1043E00017E08E3609F0AECF16E0ACCF8B8118E027
:1043F000823709F0A7CF14E0A5CF8B8115E0823773
:1044000009F0A0CF13E09ECF19E09CCF1AE09ACF1D
:104410001BE098CF1CE096CF133028F0802F8370DC
:1044200011F42F5F3F4FCB01039696958795969594
:104430008795EDE6F1E06E9FA0016F9F500D7E9F86
:10444000500D11244B5F5F4F840F951F820F931FF8
:1044500067E070E00E941324811101C087E08D8322
:104460002AE08F2D622F0E940724982F880F890F32
:10447000880F8F0D8E83812F0E940724982F990F0C
:10448000890F880F180F1F83802F0E940724982FF1
:10449000880F890F880F800F888721E048E050E05F
:1044A000BE016F5F7F4F8091F9049091FA040E94E2
:1044B0006A120E949A129FE09DA38F778EA321E03B
:1044C00042E050E0BE016B5D7F4F8091F904909116
:1044D000FA040E946A1256CB8BEC90E00E94A8026C
:1044E0004D895E896F89788D22E08DE695E00E9486
:1044F000311487EC90E08ECB82EA90E0C4CB8250FE
:1045000023E14BE852E0823038F565E376E0CE01F6
:104510008E5B9F4F0E943515882309F4D6CC69968F
:104520004CAD5DAD6EAD7FAD6997CE018E5B9F4F9B
:104530000E944708BE016E5B7F4FCE0185960E94A8
:10454000C90B4BE852E0BE016B5D7F4FCE01845832
:104550009F4F0E941F19D6CCBE01615A7F4FCE01DA
:104560008E5B9F4F0E943515882309F4AECCCE0197
:10457000815A9F4F0E94100AD2CF6DE772E069CD39
:10458000FB01DC0102C005900D9241505040D8F76C
:1045900008950E940B2308F481E00895E89409C06F
:1045A00097FB3EF490958095709561957F4F8F4F66
:1045B0009F4F9923A9F0F92F96E9BB279395F6957C
:1045C000879577956795B795F111F8CFFAF4BB0FFA
:1045D00011F460FF1BC06F5F7F4F8F4F9F4F16C05E
:1045E000882311F096E911C0772321F09EE8872FE8
:1045F000762F05C0662371F096E8862F70E060E0A4
:104600002AF09A95660F771F881FDAF7880F96951C
:10461000879597F90895990F0008550FAA0BE0E8C0
:10462000FEEF16161706E807F907C0F01216130674
:10463000E407F50798F0621B730B840B950B39F4B4
:104640000A2661F0232B242B252B21F408950A261A
:1046500009F4A140A6958FEF811D811D08950E9448
:1046600042230C94B3230E94A52338F00E94AC236C
:1046700020F0952311F00C949C230C94A223112478
:104680000C94E7230E94C42370F3959FC1F3950F08
:1046900050E0551F629FF001729FBB27F00DB11DC6
:1046A000639FAA27F00DB11DAA1F649F6627B00D56
:1046B000A11D661F829F2227B00DA11D621F739F3F
:1046C000B00DA11D621F839FA00D611D221F749F4D
:1046D0003327A00D611D231F849F600D211D822F94
:1046E000762F6A2F11249F5750409AF0F1F08823BB
:1046F0004AF0EE0FFF1FBB1F661F771F881F9150E8
:104700005040A9F79E3F510580F00C949C230C94D7
:10471000E7235F3FE4F3983ED4F38695779567955A
:10472000B795F795E7959F5FC1F7FE2B880F911D11
:104730009695879597F9089597F99F6780E870E0B7
:1047400060E008959FEF80EC089500240A94161607
:10475000170618060906089500240A94121613066F
:10476000140605060895092E0394000C11F48823FD
:1047700052F0BB0F40F4BF2B11F460FF04C06F5F19
:104780007F4F8F4F9F4F089557FD9058440F551FEF
:1047900059F05F3F71F04795880F97FB991F61F0C3
:1047A0009F3F79F087950895121613061406551F3A
:1047B000F2CF4695F1DF08C0161617061806991FA6
:1047C000F1CF86957105610508940895E894BB279B
:1047D00066277727CB0197F908950E94F823A59FB4
:1047E000900DB49F900DA49F800D911D11240895EC
:1047F000A29FB001B39FC001A39F700D811D112422
:10480000911DB29F700D811D1124911D0895991B5A
:1048100079E004C0991F961708F0961B881F7A95B7
:10482000C9F780950895AA1BBB1B51E107C0AA1FB9
:10483000BB1FA617B70710F0A61BB70B881F991F41
:104840005A95A9F780959095BC01CD010895A1E2F4
:104850001A2EAA1BBB1BFD010DC0AA1FBB1FEE1FFA
:10486000FF1FA217B307E407F50720F0A21BB30B45
:10487000E40BF50B661F771F881F991F1A9469F7C1
:1048800060957095809590959B01AC01BD01CF011D
:104890000895EE0FFF1F0590F491E02D09945058F4
:1048A000BB27AA270E9467240C94B3230E94A52348
:1048B00038F00E94AC2320F039F49F3F19F426F41D
:1048C0000C94A2230EF4E095E7FB0C949C23E92FB3
:1048D0000E94C42358F3BA17620773078407950729
:1048E00020F079F4A6F50C94E6230EF4E0950B2E57
:1048F000BA2FA02D0B01B90190010C01CA01A00132
:104900001124FF27591B99F0593F50F4503E68F18C
:104910001A16F040A22F232F342F4427585FF3CFCD
:10492000469537952795A795F0405395C9F77EF49E
:104930001F16BA0B620B730B840BBAF09150A1F0E7
:10494000FF0FBB1F661F771F881FC2F70EC0BA0F6D
:10495000621F731F841F48F4879577956795B795F5
:10496000F7959E3F08F0B0CF9395880F08F09927F0
:10497000EE0F9795879508950E94D0240C94B32349
:104980000E94AC2358F00E94A52340F029F45F3F19
:1049900029F00C949C2351110C94E7230C94A2232E
:1049A0000E94C42368F39923B1F3552391F3951B17
:1049B000550BBB27AA2762177307840738F09F5F40
:1049C0005F4F220F331F441FAA1FA9F335D00E2EAD
:1049D0003AF0E0E832D091505040E695001CCAF71A
:1049E0002BD0FE2F29D0660F771F881FBB1F2617DD
:1049F00037074807AB07B0E809F0BB0B802DBF01B4
:104A0000FF2793585F4F3AF09E3F510578F00C9482
:104A10009C230C94E7235F3FE4F3983ED4F3869500
:104A200077956795B795F7959F5FC9F7880F911DA3
:104A30009695879597F90895E1E0660F771F881F8F
:104A4000BB1F621773078407BA0720F0621B730B42
:104A5000840BBA0BEE1F88F7E09508950E94CC23D3
:104A600088F09F5798F0B92F9927B751B0F0E1F02F
:104A7000660F771F881F991F1AF0BA95C9F714C0DF
:104A8000B13091F00E94E623B1E008950C94E62342
:104A9000672F782F8827B85F39F0B93FCCF3869518
:104AA00077956795B395D9F73EF490958095709575
:104AB00061957F4F8F4F9F4F08950E940B2308F4FD
:104AC0008FEF08950E940B23880B990B08950F9385
:104AD0001F93CF93DF938230910510F482E090E032
:104AE000E091B006F091B10630E020E0B0E0A0E047
:104AF000309799F42115310509F44AC0281B390B68
:104B000024303105D8F58A819B816115710589F1C1
:104B1000FB0193838283FE0111C040815181028198
:104B2000138148175907E0F04817590799F410976F
:104B300061F012960C93129713961C933296CF0144
:104B4000DF91CF911F910F9108950093B0061093BC
:104B5000B106F4CF2115310551F04217530738F053
:104B6000A901DB019A01BD01DF01F801C1CFEF010D
:104B7000F9CF9093B1068093B006CDCFFE01E20F3E
:104B8000F31F819391932250310939832883D7CF22
:104B90002091AE063091AF06232B41F420910601FF
:104BA000309107013093AF062093AE0620910401A7
:104BB000309105012115310541F42DB73EB74091E3
:104BC000080150910901241B350BE091AE06F091CC
:104BD000AF06E217F307A0F42E1B3F0B2817390787
:104BE00078F0AC014E5F5F4F2417350748F04E0F49
:104BF0005F1F5093AF064093AE06819391939FCF72
:104C0000F0E0E0E09CCFCF93DF930097E9F0FC0168
:104C1000329713821282A091B006B091B106ED01D5
:104C200030E020E01097A1F420813181820F931FA2
:104C30002091AE063091AF062817390709F061C000
:104C4000F093AF06E093AE06DF91CF910895EA01AD
:104C5000CE17DF07E8F54A815B819E0141155105BA
:104C6000B1F7E901FB83EA8349915991C40FD51F3C
:104C7000EC17FD0761F4808191810296840F951FE6
:104C8000E90199838883828193819B838A83F0E001
:104C9000E0E012968D919C9113970097B9F52D91B4
:104CA0003C911197CD010296820F931F2091AE0681
:104CB0003091AF062817390739F6309751F5109221
:104CC000B1061092B006B093AF06A093AE06BCCF6B
:104CD000D383C28340815181840F951FC817D907A0
:104CE00061F44E5F5F4F88819981480F591F51834E
:104CF00040838A819B81938382832115310509F04A
:104D0000B0CFF093B106E093B0069ECFFD01DC0179
:104D1000C0CF13821282D7CFFB01DC0104C08D917A
:104D20000190801921F441505040C8F7881B990B1D
:104D30000895FB01DC014150504048F001900D9274
:104D40000020C9F701C01D9241505040E0F708957E
:044D5000F894FFCF05
:104D5400FFFFFFFF0000B2068000000040001400C7
:104D64005400000000005B02BB01E801C302190209
:104D7400F7010B0200000000AB0BBB01EF0FC20DEB
:104D840000000000AC0F7F0FEF0F550F780F650F79
:104D9400560F000000004311911344115B17DF16F6
:104DA400000000004311931344116C18DB1700003A
:104DB40000005E0C410CEF0F190C210C940D9E0D9C
:104DC400000000008B13BB01EF0FC20D44485431A7
:104DD400320044485432310044485432320044488A
:104DE400543F000D0A006E616E00696E66006F76B6
:104DF400660053656E736F72204448543131004924
:104E04006E697469616C697A696E672053442063C2
:104E14006172642E2E2E00696E697469616C697A00
:104E24006174696F6E20646F6E652E00696E6974BB
:104E340069616C697A6174696F6E206661696C6519
:104E4400642100436F756C646E27742066696E6418
:104E54002052544300525443206C6F737420706F7B
:104E64007765722C206C65742773207365742074C5
:104E740068652074696D65210054203A002A432036
:104E84002C20006B203A0025202C20002C00202010
:104E940020202000537568753A002A4320202020E2
:104EA400004B656C3A00252020202000577269745D
:104EB400696E6720746F20646174612E7478742E37
:104EC4002E2E0073656C6573616920210065727212
:104ED4006F72206F70656E696E6720646174612EF5
:044EE400747874006A
:00000001FF
